:020000022000DC
:1060000000000120756302005D6302005F6302000F
:106010006163020063630200656302000000000028
:1060200000000000000000000000000067630200A4
:1060300069630200000000006B6302006D630200F0
:106040009D9102006F630200B9930200119E02004D
:106050006F6302006F6302006D9202006F630200C3
:106060006F6302006F6302006F6302006F630200E0
:106070006F6302006F6302006F6302006F630200D0
:106080006F6302003D7402006F6302006F630200E1
:106090006F6302006F63020065D402006F63020049
:1060A0006F6302006F6302006F6302006F630200A0
:1060B0006F6302006F630200000000000000000038
:1060C0006F6302006F6302006F6302006F63020080
:1060D0006F6302006F6302006F6302000000000044
:1060E00000000000000000000000000000000000B0
:1060F00000000000000000000000000000000000A0
:10610000000000000000000000000000000000008F
:10611000000000000000000000000000000000007F
:10612000000000000000000000000000000000006F
:10613000000000000000000000000000000000005F
:10614000000000000000000000000000000000004F
:10615000000000000000000000000000000000003F
:10616000000000000000000000000000000000002F
:10617000000000000000000000000000000000001F
:10618000000000000000000000000000000000000F
:1061900000000000000000000000000000000000FF
:1061A00000000000000000000000000000000000EF
:1061B00000000000000000000000000000000000DF
:1061C00000000000000000000000000000000000CF
:1061D00000000000000000000000000000000000BF
:1061E00000000000000000000000000000000000AF
:1061F000000000000000000000000000000000009F
:10620000354936480A1A02D0072291438D4634494F
:1062100034480A1A06D00722914381F309880222E2
:1062200082F3148830483149314A00F044F831484B
:106230003149324A00F03FF831483249324A00F0E1
:106240003AF832483249334A00F035F83248334997
:10625000334A00F030F833483349344A00F02BF821
:1062600033483449344A00F026F83448344900228F
:1062700000F02CF833483449002200F027F8334866
:106280003349091A082902DB002202604160314AC1
:1062900090471F481F49884205D00268043003B464
:1062A000904703BCF7E700208646EC46002000211B
:1062B000294A9047FEE7884207D0521A05D0037852
:1062C00001300B700131013AF9D17047884202D098
:1062D00002700130FAE770470000012000E0002062
:1062E0000000012000000120E4F8020064220020E8
:1062F000FC220020D0630200D063020004DC020014
:10630000E4F80200642200206422002064DD020020
:1063100064DD020068DD020064DD020064DD02006D
:1063200064DD020068DD020068DD0200E4F80200BE
:106330007CF90200FC220020FC220020FC2200202C
:10634000582D0020582D0020582D0020582D0020B9
:10635000584D00209D6302006DA60200FEE7FEE797
:10636000FEE7FEE7FEE7FEE7FEE7FEE7FEE7FEE705
:1063700000F002B8FFF7FCBF0F484FF00701884359
:1063800085460E4880470E48016841F4700101605F
:10639000BFF34F8FBFF36F8FFFF732BF09480A4932
:1063A0000A4A884207D0521A05D0037801300B7090
:1063B0000131013AF9D1704700000120698C0200D7
:1063C00088ED00E050DD0200502200206422002011
:1063D000F0B595B01D46164608460C4602F050FB37
:1063E0001A9B0D93CDE9086500252B46082205A9C7
:1063F00020460A958DF82C500C9502F05DFB079B0A
:106400000293069B03939DF814308DF8115003F00E
:106410000302012A1DD1BDF81420059DC3F3C20358
:10642000C2F383168DF81030B20008230EA920465F
:1064300002F042FBC5F3952508AB0093324602AB50
:106440000EA9284600F070FB204602F01DFB15B097
:10645000F0BD022AF8D1BDF81650C3F3C203C5F34C
:1064600089158DF810300827082D2E4628BF0826DC
:106470003B4632460EA9204602F01EFBAD1B08AB80
:1064800002AA31460EA8374400F0B2FB002DEBD132
:10649000DAE70000014B01221A7070473D2300200B
:1064A0007047000070B50E4D06460FCD88B06C46A3
:1064B0000FC495E80F00002E84E80F00094A0A482F
:1064C0004FF0060308BF00226946009302F0ECFD7E
:1064D00008B100F0E9FB054B1E7008B070BD00BFAD
:1064E00068DD02009564020064220020FC22002086
:1064F00007B5044B0093044A4023FFF769FF03B03C
:106500005DF804FB0D650200FD22002038B50D4842
:106510000D4C0E4D002323700378EB5CD2B263B1B7
:10652000043003F0D7FB08B100F0BEFB084B1A782B
:1065300012B12378002BFBD038BD0C3003F078F972
:10654000F1E700BF642200203D230020BC29002089
:10655000FC22002008B50848084A0378D35C3BB108
:10656000043003F01BFBBDE808400020FFF79ABF92
:106570000C3003F0E7F8F6E764220020BC29002085
:10658000037813F0040216D003F00303012B03D0A9
:10659000022B09D0012070470A6800880232C0F33C
:1065A000831002440A60F5E70B684288023303EB6C
:1065B00092130B60EEE71046704700002DE9F04F94
:1065C000DFF81CA187B00F4600230446861C0DF19E
:1065D000070015468DF8073000F0C2FDDAF80420F8
:1065E0003A60DAF8083003F580739B1A0AF21C4708
:1065F0000AF583690AF21448B3421AD30020002D29
:1066000069D004F00F039B0143F0050363F30F000F
:10661000DAF80430DAB2033233444AF822009DF843
:106620000700CAF8043000F0BFFD012007B0BDE844
:10663000F08F0121384601F07BFD484601F090FDC6
:10664000404601F08DFDDAF808000290C0B2033038
:106650000AEB800002A9FFF793FF029B30BBDAB27E
:106660000AEB8202D16803919A1C0133DBB20AEB78
:1066700083030292D3F80CB001F00303012B22D064
:10668000022B15D08346404601F06DFD10B1029BF0
:10669000CAF808305946384601F04AFDDAF80830A1
:1066A000DAF8042003F580739B1AA5E7D8B2CEE789
:1066B000BDF80E30C3F3891303334FEA1B4B02EBD3
:1066C00093030293DFE7BDF80C30C3F383134FEA63
:1066D0001B4B1344F5E7A40544F0060098E700BF00
:1066E0001024002030B50A4C71B10A4A0A49121B25
:1066F000D20800239A4201D1002030BD31F8235046
:10670000854202D00133F5E7034654F83300F4E73D
:1067100070DC020040DD020064220020094B0139D8
:1067200003EBC000032909D8DFE801F00A020406E0
:106730000420704700797047407970470020704707
:106740000220704770DC020070470000034BD3E961
:106750000130C31A58425841704700BF102400202E
:106760002DE9F04186B0FFF7F1FF0546002840F023
:10677000ED80774CC4F81804BFF34F8FA3680293E1
:10678000DBB2033304EB830002A9FFF7F9FE029B9F
:1067900018B1D4F81824002A5AD0DAB2991C01335F
:1067A00004EB8202DBB204EB8303D268DB68049360
:1067B00002F00303022B0392029154D1BDF80E3074
:1067C0006448C3F38917502F3E4628BF502606F170
:1067D000080166F38F13C1F30901ADF80E3002F022
:1067E00020F90546002800F09C8002F049F90023BA
:1067F000082203A9284602F055F90299CB43DBB2DF
:106800000133C9B20331B6EB830F4FEA830204EBC5
:10681000810125D95FFA82F80823A6EB08062846ED
:1068200002F040F9F6B208F108034B4903F0FC030B
:106830003246284602F036F9029B033703EB9707EE
:106840000297D4F81834002B43D1D4F8106453E0E5
:1068500062689A4294D8A260284606B0BDE8F081EA
:1068600008233246E5E7012B5BD1BDF80C303948EF
:10687000C3F38311062928BF062161F3891302316E
:1068800001F00F018900ADF80C3002F0CAF805469E
:10689000002846D002F0F4F80023082203A9284675
:1068A00002F000F90026BDF80C20C2F38312B300F9
:1068B000964203F10803C4D202994A1CC9B20331BB
:1068C000029204EB81010422284602F0EBF8013623
:1068D000E9E7284602F0D8F8FFF738FF80F001001A
:1068E000C5B2B9E7F3685B7923B1336829461B6801
:1068F00030469847F3681E68002EF3D1284602F010
:10690000C3F80DF107008DF8076000F029FCD4F8FA
:1069100018340BB9029BA3609DF8070000F044FCFB
:10692000DAE7D4F8104454B90C4B0D480D49C01A9D
:10693000C008000440F0020000F05EF8CCE72368D5
:1069400020469B689847E3681C68ECE7002583E7CE
:10695000102400205CDC02001C24002070DC0200FB
:10696000A0DC0200A5DD02002DE9F34704460E4637
:10697000924601A9012218469946FFF71FFE1C4FB7
:1069800010B3019D4FF00008AA1CC84508EB020196
:1069900025D11848002101F084FB80F31000000489
:1069A00040EA1440E4006B1C04F03804DBB2EDB2A2
:1069B00044F0010407EB8303033544EA881444EAF6
:1069C0008624D86047F825403B781BB1FFF7C8FE06
:1069D0000028FBD1FFF7B8FE02B0BDE8F087C9B2CE
:1069E00007EB81015AF82830CB6008F10108CCE7A9
:1069F000102400202C28002000231A46FFF7B4BFE3
:106A000007B50123019201AAFFF7AEFF03B05DF8BD
:106A100004FB07B5CDE9002302236A46FFF7A4FF74
:106A200003B05DF804FB1FB5CDE90123069B03937A
:106A300001AA0323FFF798FF05B05DF804FB0000EF
:106A400038B5084B0125D3F810441D7004B938BD82
:106A5000E3685D71236820465B689847E3681C68BB
:106A6000F4E700BF1024002030B5C38885B0044689
:106A70000D4633B1144A00921449154A284601F0D4
:106A8000BEFB217A05291DD0637A4BB1A088FFF7A0
:106A900045FE104B104953F82020284601F0AFFB6B
:106AA000227A0E4BA08853F8222003920021FFF790
:106AB00019FE039A0A490346284605B0BDE830404E
:106AC00001F09DBB05B030BDDADD0200C2DD020081
:106AD000BADD020048DE0200DFDD02006CDE0200EB
:106AE000E2DD020007B503460846197A052911D0F0
:106AF0005B7A2BB1094A0A49019001F080FB0198A9
:106B00000849019001F07BFB019803B05DF804EBAC
:106B100001F06ABB002AF8D0F2E700BFDADD02001C
:106B2000DFDD0200D7DD02002DE9F04385B01F460E
:106B30000C9D002395F80C902B7306460C4690464E
:106B400029463846FFF790FFB8F1060F09D8DFE86D
:106B500008F00412181F283340003146284601F07F
:106B60004EFB002229463846FFF7BCFF85F80C9003
:106B700005B0BDE8F08322683146284601F03FFBAE
:106B8000EFE7D4E900233146284601F038FBE8E777
:106B9000A36800933146D4E90023284601F02FFB77
:106BA000DFE7E3680193A36800933146D4E900234B
:106BB000284601F024FBD4E723690293E36801939C
:106BC000A36800933146D4E90023284601F017FB5F
:106BD000C7E76369039323690293E3680193A3689A
:106BE00000933146D4E90023284601F008FBB8E7BA
:106BF00008292DE9F74F80460E4617461C463CD81B
:106C0000002593F80C901D7319461046FFF72CFFD2
:106C1000DFF888A0DFF888B0AE4231D918F8052037
:106C20005946204601F0EBFA0135082DF4D11949F7
:106C3000194DDFF870A0204601F0E1FA4FF0000B8B
:106C40005E4522D918F80B207E2A05D810460192FD
:106C500006F010FF019A00B92E225146204601F09D
:106C6000CEFA0BF1010BBBF1080FE9D1012221464D
:106C70003846FFF737FF84F80C9003B0BDE8F08F7B
:106C80005146204601F0BBFACEE72946204601F0E6
:106C9000B6FAE6E7F6DD0200F4DD0200F2DD0200FE
:106CA000ECDD0200F8DD02001FB50021039001AA0F
:106CB00044F20100CDE9011100F004F805B05DF8DF
:106CC00004FB000038B572B6FFF7BAFEFFF748FDC7
:106CD0000028FBD1104B114C114D1249E41AE40865
:106CE000240444F00100FFF787FED5F8F030DB07FD
:106CF00000D500BE0C4944F00200FFF77DFEBFF353
:106D00004F8FEA68094B02F4E0621343EB60BFF374
:106D10004F8F00BFFDE700BF70DC0200A0DC020067
:106D200000ED00E08BDE020097DE02000400FA05B1
:106D300010B5D0E90243D1E90202A04272EB03038D
:106D40002CBF0120002010BD08B50A4800F05FFBF1
:106D5000094AD2E90031C018084BD3E9002341F1B8
:106D60000001904271EB030303D210F1807041F1F6
:106D7000000108BD8022002038280020B028002013
:106D800037B505460C460A4801A901F0BEF860B1C6
:106D90000570446001A9064801F0E1F818B1054802
:106DA00000F03AFB002003B030BD0420FBE700BF39
:106DB0009C28002080220020294B73B51E780446B1
:106DC0001EB90026304602B070BD0028F9D0FFF78A
:106DD000BBFFD4E902239042994139D300230DF13E
:106DE00007008DF8073000F0BBF923692BB94FF08D
:106DF000FF324FF0FF33C4E902239DF8070000F093
:106E0000D3F9D4E90530984700250DF107008DF836
:106E1000075000F0A5F92369C3B1D4E90212B2F119
:106E2000FF3F08BFB1F1FF3F05D05B1842F1000200
:106E3000C4E9023235469DF8070000F0B5F9002D8F
:106E4000BFD00848214601F097FEBBE71D46F2E798
:106E5000B3F1FF3F08BFB2F1FF3FB2D0F1E700BF8F
:106E600040280020B4DE020013B5114B1149186808
:106E7000019008231048582201F034F8044698B9CC
:106E80000E4A0F4801A900F0B3F9044660B90C4856
:106E9000012100F09FFA01230A4A0948194600F02F
:106EA00001FA094B01221A70204602B010BD00BF42
:106EB000AEDE0200442800209C280020A96F0200BA
:106EC00080220020FFFF7F004028002030B56AB1FB
:106ED00003684FF0FF344FF0FF355A614A1E5142AC
:106EE000C3E9024551411961002030BD0720FCE78C
:106EF000F7B5044600250DF1070017460E468DF83C
:106F0000075000F02DF9D4E90223B3F1FF3F08BF89
:106F1000B2F1FF3F07D1FFF717FF301841F1000131
:106F2000C4E9020101259DF8070000F03DF955B1C3
:106F30002369A76103B126612146002003B0BDE8A3
:106F4000F040FFF71DBF284603B0F0BD37B505463A
:106F500000240DF107008DF8074000F001F9D5E994
:106F60000223B3F1FF3F08BFB2F1FF3F1FBF4FF055
:106F7000FF324FF0FF33C5E9022301249DF80700DB
:106F800000F012F934B12946012003B0BDE83040C9
:106F9000FFF7F6BE204603B030BD0000014800F008
:106FA00036BA00BF802200202DE9F743064600F0E4
:106FB00019FA40B1624AD2E9003113F1807341F10C
:106FC0000001C2E900310021304600F01AFA38B160
:106FD0005C4C236823B12068FFF7EEFE002323609A
:106FE0000121304600F00DFA20B1FFF7ADFE564BFF
:106FF000C3E900015548534C01A900F0C0FF4FF010
:10700000FF384FF0FF39A0B9DFF844814D4D4046BD
:1070100001F0C8FD002800F08580D0E90223B3F11B
:10702000FF3F08BFB2F1FF3F32D1404601F0B4FD4F
:10703000EDE70378012B20D0022B08D1444D2846E0
:1070400001F0AAFD002877D0C0E90289F7E75BB913
:107050004168D1E90223B3F1FF3F08BFB2F1FF3F1E
:1070600002D03B4801F088FD01A9384800F0B2FF8A
:1070700001A9364800F083FFC5E7416823689942BB
:1070800002D100232360EFE7314801F08EFDEBE7EA
:10709000296891B12968D1E9020182428B412FD23E
:1070A0002B68D3E90223B3F1FF3F08BFB2F1FF3FE2
:1070B00003D02968404601F05FFD404601F06CFDB9
:1070C000D0E902490746FFF73FFE201A69EB0109A4
:1070D000012879F1000318DBB0F5350F13D3FFF762
:1070E0005DFF1C4A02441C484FF49603002100F047
:1070F000F9F890B92B6813B9304600F0CBF82F603F
:1071000003B0BDE8F0832246EDE71348002100F00C
:107110006EF93846FFF750FE01E00D28F9D0002344
:107120002B6074E7074B1B68002BE9D1304603B096
:10713000BDE8F04300F0B2B8084B01221A7093E7A3
:1071400038280020B8280020B02800209C280020E3
:10715000B4DE0200FFFFB40080220020402800209F
:1071600070B5EFF3108672B60C4A946801239CB98F
:1071700093600B4B0B4DD3F8801029401160C3F87E
:107180008050D3F8841051604FF0FF32C3F8842050
:10719000047006B962B670BD0370FAE7BC2800201F
:1071A00000E100E0FC06FFBD084B9A6810B55AB13B
:1071B00050B9EFF3108172B6054A1C6814605C6820
:1071C0005460986001B962B610BD00BFBC280020B1
:1071D00000E100E0435882B03BB1002343504358E4
:1071E0000193019B012002B070471846FBE70000A5
:1071F000F8B5204B4479204E43F824201F4A204BF9
:1072000006EBC4049B1A2279DB081B0432B143F05D
:1072100002001C49FFF7F0FB0820F8BD02680C884B
:10722000C2F8084590F904508A7804795201002D7B
:10723000D2B219DB14494F1987F8002301226D09D6
:1072400004F01F0402FA04F441F82540427906EBE9
:10725000C201012446F832000C7143F003000B49CF
:10726000FFF7CAFB0020D8E7094904F00F040A55CC
:10727000ECE700BFD0280020C828002070DC020006
:10728000B0DC0200C0DE020000E100E0E2DE02004D
:1072900014ED00E0036801221A60704703680122C0
:1072A0005A60704773B501F15005AD000068ADB28A
:1072B0004FF480348C400026C0F80843C0F848439F
:1072C000465101F5A8714559019522F07F42019D73
:1072D00040F82120C0F844430BB1C0F8044302B089
:1072E00070BD00002DE9F74F0D4622F07F44026883
:1072F0004FF4803705F150068F408046B60002EB10
:107300008500C2F84873B6B2C2F80873D2F8041503
:1073100099464FF0000BD0F84035C0F8401542F8C0
:1073200006B05B1A9259009223F07F43012B009A1A
:107330004FEA850A0CD1264B4FF4806043F00103DD
:107340009847D8F8003043F806B09B590193019B49
:10735000D8F80010D1F80465C1F84473A31B23F0DA
:107360007F43012B1CD11A4B05F5A875013443F05E
:10737000010341F825404FF480609847D8F8003069
:10738000D3F804359E4209D1D8F800300020C3F864
:107390004473C3F8047303B0BDE8F08F0D20FAE71F
:1073A0008A44C9F1FF13CAF84045D1F80405221AEE
:1073B000013A22F07F4203F57F439342EED3002A45
:1073C000E2D10134CAF84045D1F804359842DAE7F1
:1073D00000DF020003680222C3F8442309B1C3F8A6
:1073E0000423704700684FF48271FFF7F3BE4FF437
:1073F000803303FA01F10368C3F84813C3F8081394
:10740000704750318900006889B2FFF7E3BE036816
:10741000D3F804057047000090F90430002B09DB15
:107420005A09012103F01F0301FA03F34032024914
:1074300041F82230704700BF00E100E0024B034AF0
:107440001B681068184700BFD0280020C8280020FB
:1074500070B5064D0646002455F8043B0BB1304686
:1074600098470134042CF7D170BD00BFE0280020FC
:107470004388033300EB830399420BD382884FF692
:10748000FF739A4208D0038833B18068431C584286
:10749000584170470220704701207047033080B286
:1074A00040F2FE33984230B51FD8134B1A783AB9E0
:1074B0001C895D892C440444A4B2B4F5806F0AD9B8
:1074C0001A7DAAB99A8BDC8B2244024492B2B2F59F
:1074D000806F0DD801220A801446142202FB043367
:1074E0005A8910445881002030BD48F20860FBE7FB
:1074F00048F20660F8E700BF142900200B4A0C4947
:107500005388142000FB0311CB6833B90420496869
:1075100010700122074801F0D5B807490523137000
:1075200002238B80012209680023F3E7F82800205A
:1075300014290020502200205029002007B50023E4
:1075400005490093054A09680548082301F020F819
:1075500003B05DF804FB00BF5029002014DF0200D7
:107560005022002007B5002301460093034A044837
:10757000082301F00DF803B05DF804FB0CDF0200F6
:107580005022002013B500230C4600930146084A00
:107590000848042300F0FCFF38B9074B142101FB15
:1075A000043101230B7402B010BD48F20D60FAE7FC
:1075B00008DF0200502200201429002037B50A48B5
:1075C0000A4B42689C881968538803250333057069
:1075D0009BB2002000909B0001EB8401044800F066
:1075E000D7FF03B030BD00BFF8280020502900208D
:1075F0005022002010B50146044800F086FC1C22F1
:107600000446002106F09BFA204610BD3C290020CC
:1076100038B5144B14220D4602FB00302B68446829
:1076200004F58051A3B15C88033403EB84048C42DD
:1076300015D22368013312D02046FFF719FF012825
:1076400008D002280BD00028F1D12C60012038BDD1
:107650000834ECE76388033304EB8304E7E7002096
:10766000F5E700BF14290020426873B504460D46B3
:107670006AB3234BD9688A4229D31B699A4226D818
:1076800012F0030323D11F490089098988421ED1C2
:107690002068916888421AD11B4841688A4203D900
:1076A00001F580518A420DD381698A420CD901F5D6
:1076B00080518A4208D201222A80B3FA83F040091D
:1076C00002B070BD1A46F7E748F20963F5E70026F5
:1076D0002E800196288801A9FFF79AFF30B92B88E0
:1076E00001339BB2012B2B80F3D9E9E7019B226880
:1076F00099689142EED16360024B1B892381DFE7D9
:1077000050220020F8280020142900202DE9F843F9
:107710001C461D4B1B7806460F46154673B382B3B5
:107720007CB3DFF86C804FF01409A388012B02D9D9
:1077300048F2096020E009FB03F318F803302BB985
:10774000A0882146FFF764FF20B92060A388013399
:10775000A380EAE723681EB1998832889142EFD16D
:107760001FB119883A889142EAD19A68C5E9002385
:10777000064B1B892B810020BDE8F88348F201608D
:10778000FAE748F20460F7E7F0280020F828002024
:107790001429002008B5074B5888191DFFF738FF3A
:1077A00018B1BDE80840FFF709BFBDE80840FFF782
:1077B000A5BE00BFF82800202DE9F0479F4FDFF855
:1077C000A08288B006463B6823B99D48414600F038
:1077D000D6FB38603D6829784B1E052B07D8DFE8BB
:1077E00013F0200074007400060106015E0148F2E7
:1077F0000E641422002103A806F0A1F941F61D53DE
:107800009C4208BF00243B6804941A78023A042A78
:1078100000F2FC81DFE812F0DD01E9010B02130246
:107820001A022EB1874B00225A604FF40644E0E75B
:107830002B79032B1CD8DFE803F014022A35824A87
:107840001378022B1AD0137D022B4FF0010317D1AE
:1078500014214B43D1180020D0544868FFF782FE12
:1078600003E001232B71FFF769FE002800F0B980C7
:10787000744B00225A6048F20D64BAE70023E7E730
:10788000704A13700023536041F61D54B1E76F49ED
:107890006F48002302222B718A800968012200F0C0
:1078A00011FFE2E76B4B684C5B88684A14214B433D
:1078B000E11800262E714D681068156095884860A3
:1078C0000D810221E6549180C8E7B5F814A0AA7D85
:1078D000DFF87491AEB1022AEB8806D9142101FBBE
:1078E0000A91DA1C088902440A81142202FB0A99CF
:1078F000C3F57F43B9F80A20FD331344A9F80A30D1
:1079000093E7142303FB0A9318895C6804EB800453
:10791000062A69D8DFE802F0274E36441D5A0400D3
:1079200041F61D54AA7DEB88022A06D9142101FBD9
:107930000A91DA1C088902440A81142202FB0A997E
:10794000C3F57F43B9F80A20FD331344A9F80A3080
:107950004FE74148414900234360AB690360FFF7AB
:1079600083FE00285BD00223AB7500230093042321
:10797000EA182146364800F00BFE002831D048F2C4
:107980000D64CFE72B69002B14BF03230123AB75D4
:107990000023009305F10C02042304F10801E9E738
:1079A0000123AB750022EB8800922A699B0004F149
:1079B0000C01DFE703290CBF05230623AB75002369
:1079C0000093042305F10802E118D3E70623AB7501
:1079D000224B1988204B5868FFF7D4FD0446002835
:1079E000A0D108B0BDE8F08748F20E649AE7002EF7
:1079F0007FF41BAF2B79012B34D0022B3FF444AF23
:107A0000002B7FF4F4AE02232B710DF10A01EB6819
:107A1000039303A8CDE90466FFF726FE10B948F2E8
:107A20000964E6E60498BDF80A108388EB800388B1
:107A30002B81FFF7A7FD044627E000BF1029002097
:107A40003C290020F0280020142900205029002083
:107A500050220020F8280020D42800205829002097
:107A6000082900207B4B03AA3146A81DFFF74EFED4
:107A7000784B044668B999880498FFF783FD04465B
:107A800048F209639C423FF4FFAE002C7FF4B1AE94
:107A9000A7E708223146184606F051F8F0E7002E15
:107AA0007FF4C3AE6C4B1A7BB2B11E731A78013AE5
:107AB000062A3FF69CAE01A151F822F0677B020036
:107AC0008D7B0200AB7B0200B17B0200EF770200EE
:107AD000B77B0200C97B02001A78072AE6D801A109
:107AE00051F822F0057B0200AD7A0200AD7A020067
:107AF0002B7B02003F7B0200637B0200637B020062
:107B0000277B02001A89554901321A8100225A80C6
:107B10001A730A78B2FA82F252099A720A7DB2FA9C
:107B200082F25209DA72012207E04D4958688A88C8
:107B30004088033202448A8002221A70B6E75C88C9
:107B4000464A4749142505FB0422086854685060DA
:107B50008888108102200C60888000211174062220
:107B6000EBE70722E9E79A7A32B9DA7A8AB9002292
:107B70001A705A805A6087E6384900229A72CA6899
:107B8000002AF2D1097C0029EFD05A80FFF702FECB
:107B900051E70022DA72314A116A0029E7D192F8DE
:107BA0002420002AE3D00122EFE7FFF707FD42E798
:107BB000FFF7A4FC3FE75A88284B142101FB02334E
:107BC0005868FFF7CFFC36E700225A60FFF7B6FC93
:107BD00031E701228DF80C201A89ADF818209A8817
:107BE000DB68ADF81A20059310E002228DF80C2016
:107BF0001A89ADF818209A88ADF81A20DA689B7DAA
:107C000005929A1F534253418DF81C3003A8FFF789
:107C10001FFC0026414613483E6000F0DBF9124885
:107C2000012100F091FA00287FF4CDADD9E60322BE
:107C30008DF80C20DA88ADF818201A89D0E70422D4
:107C40008DF80C20DB88ADF81830DFE705238DF8C0
:107C50000C30DBE75C290020F828002014290020E4
:107C6000502900203C2900204C2900204068FFF7C3
:107C7000A3BD000008B50548012100F04DFA18B970
:107C8000BDE80840FFF798BD08BD00BF4C290020A3
:107C90002DE9F3419846374B1B7806460D46002BDD
:107CA0005CD000295DD009884FF6FF7399425BD004
:107CB0006B88002B58D06B689B0758D14AB92F8925
:107CC0000DF102013846FFF7E9FB30B102B0BDE823
:107CD000F08113885788ADF8023001A8FFF78AFCBD
:107CE000044660B9BDF80220234B142101FB023386
:107CF00058890338C01B588148F20760E6E780F8CE
:107D0000008000238375BDF8023083826B680361B5
:107D100001211A4800F00CFA2B882381B8F1030FD7
:107D20006B88A38004BF0423A3754FF0000508BF30
:107D30003368E06008BFA3611148E780658101A94D
:107D400000F00DF936B1E36833600E4B75601B89A6
:107D5000B5723381FFF78EFF0020B7E748F201606C
:107D6000B4E748F20460B1E748F20360AEE748F2D6
:107D70000260ABE7F0280020142900200C29002025
:107D80003C290020F828002073B50D460446C8B1F0
:107D9000C1B10DF10601FFF767FCB0B1BDF80630C7
:107DA0000B486668142202FB030001210C3000F02E
:107DB000BFF963682E600C336B600123A37200204F
:107DC00002B070BD48F20460FAE748F20960F7E7D4
:107DD0001429002013B50446A8B10DF10601FFF7E0
:107DE00043FC98B1BDF806200B4B142101FB023374
:107DF000DA6872B1A27A62B1DA680020013ADA6018
:107E0000A07202B010BD48F20460FAE748F20960BF
:107E1000F7E748F20560F4E7142900200223002266
:107E2000FFF736BF18B103230022FFF731BF48F236
:107E300004607047114B1B7813B50446ABB14FF685
:107E4000FF73984214D001A8FFF7D4FB98B1052323
:107E5000037001230371C48001A9094800F07FF871
:107E6000FFF708FF002002B010BD48F20160FAE7FA
:107E700048F20360F7E748F20760F4E7F0280020D3
:107E80003C29002007B5ADF80600ADF804100DF14F
:107E9000060001A9FFF73AFC03B05DF804FB07B543
:107EA0001346ADF806000A4600200DF10601FFF763
:107EB0002DFC03B05DF804FB07B51346ADF80600D2
:107EC0000A460DF106000021FFF720FC03B05DF823
:107ED00004FB20B119B103680B600020704748F221
:107EE0000460704710B561B1B2FBF3F403FB1424D6
:107EF000A4B244B9C0E9001484608281C3812046E1
:107F000010BD0E20FCE70920FAE737B550E8013F25
:107F10009DB2C48925448489A54228BF2D1B0489AC
:107F2000A54202BFBFF32F8F002207E0C5EA030579
:107F300040E80154002CE9D14FF001028DF80320F4
:107F40000193019A0A609DF8031001F0FF0321B12B
:107F5000006810FA82F003B030BD1846FBE70A88CB
:107F60004B889A4209D150E8012FC2EA024240E808
:107F70000123002BF7D1012070470020704737B54F
:107F800050E8023F1FFAA3F5C488A54202BFBFF321
:107F90002F8F00220DE0C48925448489A54228BF83
:107FA0002D1BC3EA054540E80254002CE8D14FF0F0
:107FB00001028DF803200193019A0A609DF80310D5
:107FC00001F0FF0321B1006800EB124003B030BDA7
:107FD0001846FBE70A884B889A4209D150E8022FDD
:107FE000C2EA224240E80223002BF7D10120704769
:107FF0000020704701F01F024B090121914000EB66
:10800000830000F065B84B0910B501F01F04012191
:10801000A14000EB830000F04FF8E04000F00100C9
:1080200010BD01F01F0301229A404B0900EB8300B1
:10803000D14300F065B84B0901F01F0150F823004F
:10804000C84000F0010070472DE9F0474F1E7F093E
:1080500080460E460137002558F8254008EB850973
:10806000E44394FAA4F4B4FA84F44FEA451A202CB9
:1080700006D10135AF42EFD834462046BDE8F0873F
:108080005444A642F5D921464046FFF7BCFF0028DC
:10809000F3D0D9F80040E44394FAA4F4B4FA84F499
:1080A000E5E710B5034653E8000F0A4643E800240D
:1080B00094F0000FF7D110BD10B5034653E8000F40
:1080C00040EA010243E8002494F0000FF6D110BD0D
:1080D00010B5034653E8002F42EA010043E80004CC
:1080E00094F0000FF6D110BD10B5034653E8000F11
:1080F00000EA010243E8002494F0000FF6D110BD1D
:1081000010B5034653E8002F02EA010043E80004DB
:1081100094F0000FF6D110BD10B5034653E8000FE0
:1081200000EB010243E8002494F0000FF6D110BDEB
:1081300010B5034653E8002F02EB010043E80004AA
:1081400094F0000FF6D110BD10B5034653E8002F90
:10815000A2EB010043E8000494F0000FF6D110BD3B
:108160000121FFF7B5BF0021FFF7BEBF37B50546B8
:1081700000240DF107008DF80740FEF7F1FF2A6893
:108180006B68116899420ED9481E106011F8013CC5
:10819000EC68298A01FB0344AB6811791B1ADBB236
:1081A000994238BF13719DF80700FEF7FDFF204686
:1081B00003B030BD37B5054600230DF107000C466E
:1081C0008DF80730FEF7CCFF2A681368591C116040
:1081D000E968641A298AB4FBF1F41C709DF8070061
:1081E000FEF7E2FF03B030BD826810B504462AB145
:1081F00043690168006998470023A36010BD0EB46D
:1082000003B5039921B104AB01AA019300F076F8FC
:1082100002B05DF804EB03B070470A2938B5044694
:108220000D4602D10D21FFF7F8FFA3682268591C03
:10823000A160D554D4E901329A4204D32046BDE866
:108240003840FFF7D1BF38BD2DE9F84F9846DDE93A
:108250000A43154682460F460A464FF00109AA42D4
:108260000FD2C14538BFC14613F0010B01D16CB923
:1082700000240126B8F1010F1BD908F1FF386E4325
:10828000F8E709F10109B2FBF5F2E8E79B070ED523
:10829000B8F1000F0CBF30262026A145E9D2013CE1
:1082A00031465046FFF7B9FF002CF6D1E0E7202613
:1082B000F3E7B7FBF6F39D42E1D9DFF83C80B7FB6B
:1082C000F6F3504618F8031006FB1377FFF7A5FFE7
:1082D0003346AB42B6FBF5F6F1D2BBF1000F02D04C
:1082E0000CB1A14501D3BDE8F88F20215046013CD7
:1082F000FFF793FFF4E700BF1CDF02002DE9F74F03
:10830000054617468846002900F03E8118F8011BF3
:1083100049B92B7B002B00F03781284603B0BDE81C
:10832000F04FFFF761BF252940F0B780002698F88D
:1083300000302D2B424608F1010823D0302B24D0E9
:108340002B2B25D000242A2B02F1010123D13B68DD
:108350001A1D1B683A601C440A4613782E2B26D13E
:1083600001324FF0000A104610F8011BA1F1300C49
:10837000BCF1090F1DD80A2303FB0A13A3F1300A2D
:108380000246F0E746F00106D1E746F00206CEE7E6
:1083900046F00406CBE711F8013CA3F130000928B0
:1083A000DBD80A2202FB0434303C0A46CBE74FF00C
:1083B000000A12F8011B01F0FB0068289046F8D073
:1083C000782909D86F290CD8632962D022D82529A9
:1083D00063D0582900F0888098F80030002B95D1A0
:1083E00097E770390829F7D801A353F821F000BFA7
:1083F00063850200D9830200D9830200F984020058
:10840000D9830200D7840200D9830200D9830200F5
:10841000E9840200642901D06929DDD13A68D2F8E3
:108420000090111D89EAE9723960A2EBE9724FF000
:10843000010B092A35DCD34538BFD3462CB1B9F13D
:10844000000F01DB720700D5013CB30702D5BAF17A
:10845000000F03D0F00701D44CBB0024B9F1000F8A
:108460002DDAC9F100092D212846FFF7D6FE06F0C6
:108470000302022A04D1BAF1000F01D11CBB00246F
:10848000CDE9004653460A2249462846FFF7DCFE5E
:10849000A2E73B681A1D19783A602846FFF7BDFE2F
:1084A0009AE70A230BF1010BB2FBF3F2C1E7A345F4
:1084B000D4D220212846013CFFF7AFFECCE771075C
:1084C000D5D52B21D0E7A345DAD230212846013C6F
:1084D000FFF7A3FED2E73968CDE900460A1D3A60EE
:1084E00053460A220968D0E739680A1D3A60CDE987
:1084F000004653461022F5E73B681A1D3A6016F015
:108500000106D3F8009024D1B9F1000F03D04846FA
:1085100005F048FB0646B4421DD809F1FF3919F8A9
:10852000011F00293FF458AF2846FFF776FEF6E713
:1085300028460136FFF771FE19F806100029F7D119
:10854000A642BFF449AF20212846013CFFF765FE53
:10855000F6E70026F0E720212846013CFFF75DFE04
:10856000D9E73B681A1D3A60302128461C68FFF79E
:1085700054FE78212846FFF750FE00220823CDE95B
:1085800000322146102280E703B0BDE8F08F00BF23
:108590002DE9F743DDF8288088B93E4B3E483F4A35
:1085A000C01AC0080E243E4B009400043D4940F020
:1085B0000100FEF738FA204603B0BDE8F0834AB95F
:1085C000344B3548384AC01AC0080E24344B009446
:1085D0000004EBE7D0F800E0BEF1000F09D12D4B0D
:1085E0002D48324AC01AC00808242D4B00940004BC
:1085F000DCE74BB9274B28482D4AC01AC00809248C
:10860000274B00940004D1E74568D5F80490B3FBEC
:10861000F9F509FB15354DB11E4B1F48254AC01A07
:10862000C00809241E4B00940004BFE78D0709D041
:10863000184B1948204AC01AC0081024184B00943F
:108640000004B3E712F0030F09D0124B12481B4A83
:10865000C01AC0081024124B00940004A6E7C56895
:10866000A9420DD34D1EEC180569AC4208D8CDF8CF
:108670002880DEF80C40A44603B0BDE8F043604714
:10868000044B05480E4AC01AC0081024044B00943D
:1086900000048BE770DC0200C8DC02002CDF020063
:1086A000D5E0020031DF0200AEDF02005ADF020037
:1086B0006DDF0200B4DF0200DEDF0200F6DF020041
:1086C00019E00200F7B580B92A4B2B482B4AC01A93
:1086D000C0080E242A4B009400042A4940F00100EF
:1086E000FEF7A1F9204603B0F0BDD0F800C0BCF100
:1086F000000F09D11F4B2048234AC01AC008082484
:108700001F4B00940004E8E74AB91A4B1A481F4A65
:10871000C01AC00809241A4B00940004DDE745681C
:10872000D5F800E00EF1FF350D4209D0114B12488B
:10873000174AC01AC0081024114B00940004CCE75B
:10874000C568A9420CD34D1E0EFB02540569AC420C
:1087500006D8DCF81040A44603B0BDE8F0406047FE
:10876000044B05480B4AC01AC0081024044B00945F
:108770000004B2E770DC0200C8DC02002CDF02005B
:10878000C2E0020031DF02005ADF02006DDF0200AA
:1087900040E0020066E0020029DF704728DF7047F2
:1087A00070B503689E6886B004460D466EB114220B
:1087B0000021684605F0C3F9A36805932379019564
:1087C0002BB1012B0DD06846B04706B070BD012318
:1087D0008DF8003023690293E3680393636904937F
:1087E000F1E702238DF80030E3681B030293F5E7FD
:1087F000034B187A0122B0FA80F05A74400970478E
:108800007429002038B5234D234C2B7A3BB92349DA
:108810002348FFF7B4FB206008B9686038BD022325
:1088200024682B72237973B1012B24D020460321B5
:10883000FFF7B6FF00232B726B6018491848BDE89C
:108840003840FFF7C7BBD4E90523D21AB2F5805FE1
:10885000D4E9031028BF4FF480529208012A38BF90
:10886000012219441844FFF797FF50B11128DDD1B8
:1088700001232B72D2E7D4E903031844FFF78EFFDC
:10888000F3E72B7C002BC9D1BDE83840022000F073
:1088900009B800BF742900208C29002088290020F5
:1088A0006429002038B5234C237A002B41D0022BB9
:1088B00009D1032830D0204B00221B68E2601A79CE
:1088C0003AB1012A22D0637C7BBBBDE83840FFF778
:1088D00099BFD3E905128D1AB5F5805F94BF52197F
:1088E00002F580529A619142EDD102284FF00003C7
:1088F00008BF19462372104B18BF0D211868FFF7E7
:108900004FFF0E490E48FFF765FBDCE71A6901329D
:108910001A615B699A42E7E7E3680133082B01D8E3
:10892000E360D0E70023E360DFE7BDE8384004F010
:108930006FBD38BD742900208C29002088290020B3
:1089400064290020831E012B01D8FFF7ABBF7047BD
:1089500000F0FD03012B08D1044B00225A74421E83
:10896000504250411874FFF74DBF704774290020E2
:108970002DE9F84FB0F806A04579D2F800B09DF87F
:1089800028900AFB05F5043D88460BEB0301A9423C
:1089900003F1040488BFA5EB030BB4FBFAF607460A
:1089A0000AFB1644C2F800B04EB9AAEB04055D45B7
:1089B00028BF5D46BBF1000F04D1BDE8F88F3F68CA
:1089C000013EF1E7043408EB06003C442A46B9F1C5
:1089D000000F0DD02146ABEB050B05F087F8DA450B
:1089E0002E443F6855464FF0000428BF5D46E1E73E
:1089F00001462046EFE7F8B546790146721E054666
:108A0000002393422D6803D30024A64202D8F8BD68
:108A10000133F6E70F682846FFF7CCFB01343946EF
:108A2000F3E72DE9F843068ACD1C0746FFF79EFBC6
:108A3000043E35440446B5FBF6F5F0B14FF48073BF
:108A4000EDB28380C680013D076081464FF000088B
:108A5000A84512D23846FFF789FB064648B163792C
:108A60000133637108F10108C9F80000076081460D
:108A7000EEE72046FFF7BFFF34462046BDE8F88307
:108A800001210430FFF754BB10B501210446043026
:108A9000FFF75AFBC0B220B92046BDE81040FFF7EF
:108AA000AABF10BD1FB503920022009203AAFFF7D0
:108AB0005FFF05B05DF804FB1FB503920122009231
:108AC00003AAFFF755FF05B05DF804FB41DF7047CF
:108AD000064B10B500241C70054B1C60BFF35F8F64
:108AE0000449054800F032F8204610BD98290020BE
:108AF0009C290020F4E002009029002007B5002303
:108B00000DF107008DF80730FEF72AFBF1EE103A61
:108B100023F09F03E1EE103ABFF35F8F0A4B402230
:108B2000C3F884219DF80700FEF73EFB04F080FCAB
:108B300020B103B05DF804EBFFF7C8BF20BF40BF12
:108B400020BF03B05DF804FB00E100E00B684A6859
:108B50004360934208BF0023016008BF4360704731
:108B6000436843B10268916852680B449342436082
:108B700004BF00234360704770B5446806460D4645
:108B8000206818B1B3682946984718B923682B6044
:108B9000256070BD2468F3E74368186808B102686F
:108BA0001A6070474368186870474368186800B9CE
:108BB0007047884203D102681A600120704703465B
:108BC0000068F4E710B50D49A1F59472914201D8FF
:108BD00000200FE08C1AE30F03EBE4035B1002EBC1
:108BE000C30452F83330834205D802D204F108029C
:108BF000ECE7606810BD2146E8E700BF00E6020030
:108C000008B5FFF7DFFF024B002808BF184608BD74
:108C1000C3E402004FF08053D3F83001421C04BF7C
:108C20004FF0704393F8E00F831F5842584170474C
:108C30004FF0704393F8E02F062A09D1D3F8E83FAC
:108C4000C3F30313033B042B02D8024AD05C7047E2
:108C5000002070470FE60200024AD2F80034002BD1
:108C6000FBD0704700E0014010B5FFF7D3FF40B1E3
:108C70004FF08053944AD3F82433C3F30423C2F84B
:108C80004035FFF7D5FF10B1904B914A5A67FFF777
:108C9000C1FF48B14FF080534FF08042D3F84432C7
:108CA000C3F34233C2F83C35FFF7C2FF30B1894A03
:108CB000D2F8FC3023F08073C2F8FC30FFF7AAFF33
:108CC00040B14FF080430022C3F80C21C3F81021BB
:108CD000C3F83825FFF7ACFF20B14FF080430322E3
:108CE000C3F8A025FFF7A4FF60B17B4B0522C3F8B2
:108CF00010260122C3F888260022C3F818263F2236
:108D0000C3F814264FF08053D3F83021511C09BF0B
:108D10004FF07043D3F8343193F8E02FD3F8E83FA5
:108D200008BFC3F30313062A4DD1033B042B03D81A
:108D30006A4AD35C002B46D04FF08052684BD2F881
:108D40000414C3F82015D2F80814C3F82415D2F877
:108D50000C14C3F82815D2F81014C3F82C15D2F847
:108D60001414C3F83015D2F81814C3F83415D2F817
:108D70001C14C3F84015D2F82014C3F84415D2F8D7
:108D80002414C3F84815D2F82814C3F84C15D2F8A7
:108D90002C14C3F85015D2F83014C3F85415D2F877
:108DA0003414C3F86015D2F83814C3F86415D2F837
:108DB0003C14C3F86815D2F84014C3F86C15D2F807
:108DC0004424C3F87025FFF725FF48B14FF08053C6
:108DD0004FF08042D3F8583203F04F03C2F8E43E1C
:108DE000FFF718FF48B14FF08043D3F80024D207B3
:108DF00044BF6FF00102C3F800244FF08053D3F852
:108E00003021062A0ED1D3F83431033B042B02D88B
:108E1000344AD35C33B1344AD2F83C3743F48063EC
:108E2000C2F83C372B4AD2F8883043F47003C2F8BA
:108E30008830BFF34F8FBFF36F8F4FF08053D3F85D
:108E40003021062A0FD1D3F83431033B042B02D84A
:108E5000264AD35C3BB14FF01023D3F808224FF0E1
:108E60008043C3F858254FF01023D3F80022002A7E
:108E700003DBD3F80432002B22DA1D4901234FF023
:108E80001020C1F804351524FFF7E6FEC0F80042B3
:108E9000FFF7E2FEC0F80442FFF7DEFE0023C1F850
:108EA0000435FFF7D9FEBFF34F8F0A49114BCA684B
:108EB00002F4E0621343CB60BFF34F8F00BFFDE7C6
:108EC0000D4B0E4A1A6010BD0030014000C0074033
:108ED0000DF0ADBA00ED00E00050004000E60200E9
:108EE00000C0004005E60200001000400AE6020053
:108EF00000E001400400FA05882200200090D00321
:108F000038B5074C051E04F1080318BF1C4623683A
:108F10002BB11A6822605B6828469847F7E738BD8E
:108F2000A829002020B9054B01225A70FFF7E8BF9D
:108F3000012802D1014A9070F8E77047A02900206B
:108F400020B9034B01225A70FFF7DABF704700BF08
:108F5000A029002038B50E4C2378B3B90D486360C2
:108F6000A3602361E36000F0E7F8054604F060FACF
:108F700008B900F0EFF801232370074BD3F8003451
:108F80000BB10123A370284638BD8525F5E700BF46
:108F9000A0290020258F02000000014037B50D4CAC
:108FA00000230DF107008DF80730FEF7D9F8E368CC
:108FB000013BE360E36833B9074BD3F8005415B9BC
:108FC00000F0DAF8A5709DF80700FEF7EDF803B0A1
:108FD00030BD00BFA029002000000140012813B5CA
:108FE0000CD0032820D038B9134B0122C3F88020BD
:108FF000BFF34F8FBFF36F8F02B010BD0F4C002334
:109000000DF107008DF80730FEF7AAF823780BB9A9
:10901000FFF7A0FFE3689DF807000133E360012339
:10902000A370FEF7C1F8E7E700F094F802B0BDE8DE
:109030001040FFF7B3BF00BF00E100E0A02900200F
:109040001FB503788DF800304368019383688DF86D
:109050000830C368054A0393054B684653F821302E
:1090600052F82110984705B05DF804FBB4290020A0
:10907000B82900201FB503788DF8003043680193AC
:1090800083688DF80830C368054A0393054B68462A
:1090900053F8213052F82110984705B05DF804FBD1
:1090A000B4290020B8290020F0B5194B90F800C071
:1090B00091F81DE043F82C20164B16460A6943F838
:1090C0002C20154B03F80CE00C4607460FCC89B05A
:1090D0006D460FC594E80F0085E80F00CDF810C06D
:1090E000BEF1000F09D0002E0C4A694608BF324677
:1090F000381D00F091FC09B0F0BD002E084A694609
:1091000008BF324607F10C0000F068FAF3E700BF31
:10911000B8290020B4290020BC2900204190020079
:109120007590020000F18040002382B00360036864
:109130000193019B02B07047054A13792BB90121B5
:10914000106093719180184670478520704700BF6A
:10915000C0290020074B1A68D20704D4C02283F824
:10916000002301221A604FF080430022C3F8182523
:10917000704700BF00E100E04FF0804208B50223D5
:10918000C2F808334FF48270FFF7CCFF0123D3609D
:10919000D2F81834DB03FBD408BD00004FF0804147
:1091A00010B5D1F8003163B14FF48070FFF7BAFF0A
:1091B0001F4B58790122C1F8082310B95A711B6856
:1091C00098474FF08042D2F8043153B14FF4827087
:1091D000FFF7A8FF0223C2F80833154B01201B68D4
:1091E00098474FF08042D2F8103153B14FF4887055
:1091F000FFF798FF1023C2F808330D4B02201B68BD
:1092000098474FF08042D2F80C3183B100214FF4DF
:109210008670C2F8341CFFF785FF0823C2F80833B4
:10922000034B9971BDE810401B680320184710BD1F
:10923000C029002000F1804000F5C040002382B02A
:10924000036003680193019B02B07047800000F146
:10925000A040D0F8002722F44032C0F80027D0F810
:10926000003743EA0141C0F8001770472DE9F74F76
:1092700000244E4D01944FF48072012102F180438D
:1092800003F5C04390B21B68012B06D1D5F8043317
:109290000B4202D0FFF7CEFF0C430432B2F5907FB1
:1092A0004FEA4101EAD1414BD3F87C31012B0CD17B
:1092B0004FF4BE70FFF7BEFF4FF0A04344F00044F0
:1092C000D3F820250192C3F82025E3B2D3B1384F5B
:1092D00000250126344210D0AB0003F1804303F592
:1092E000C043D3F81005D3F8101557F8253023B133
:1092F000C1F30141C0F3042098470135082D4FEA1E
:109300004606E7D1002C48DA294D4FF0A048294EF7
:109310004FF00009012716F9013B5A1C31D0C3F365
:10932000C20202A90A44DCB212F8042C03F03F0A7C
:1093300003F0070307FA03F31A4222D00AF5E07399
:10934000504658F82330C3F3014BBBF1020F0CBF5A
:1093500003210221FFF77AFF07FA0AF3C8F8203544
:1093600005EB0A0393F9303055F823304BB1A109CE
:10937000032904D0BBF1020F12D1012901D15046BB
:10938000984709F10109B9F1040FC4D1D8F8203583
:109390000193C8F82035002BB9D103B0BDE8F08F98
:1093A000BBF1030FEDD10229E8E700BF00600040E8
:1093B000C8290020182A0020014B1B68184700BF4D
:1093C000242A00200E4B984237B50C4602D00020CC
:1093D00003B030BD00230DF107008DF80730FDF715
:1093E000BFFE084B1D7915B901221C601A719DF84A
:1093F0000700FDF7D9FE002DE9D01120E8E700BFF6
:1094000000200040242A0020034B984201BF034B58
:1094100000221A601A71704700200040242A0020A0
:109420000023435082B043580193019B02B0704720
:109430000A4610B54FF48E71FFF7F2FF136A916878
:10944000C95C136A01331362C0F81C1510BD8B6927
:109450000A4610B54FF4847123B9FFF7E1FFD0F845
:10946000183510BDFFF7DCFF536AD168D0F8180536
:10947000C854536A01335362F3E700001FB5012358
:109480008DF80030044BCDE90110D3E90012684695
:10949000904705B05DF804FB2C2A002030B54D4DF7
:1094A000D5F804339A0585B051D5D5F82431002B71
:1094B0004DD04FF492712846FFF7B2FF4FF401737D
:1094C000C5F80833444B93F829200AB901226A6091
:1094D000404902228DF80020D1F88024C1F8802470
:1094E00003929A690292DA6801920022C3E9062285
:1094F0006846D3E9001290473648D0F81C315BB17A
:10950000354A5169136A99424DD992F82830002B97
:1095100049D11146FFF78CFF2E48D0F84431002B7B
:1095200056D04FF4A271FFF77BFF2B4B93F8292005
:109530000AB1012202609A69002A49D0586AD968A2
:1095400000229A6105B0BDE83040FFF797BFD5F81B
:1095500004335B07D0D5D5F80831002BCCD01E4C96
:109560001C482146FFF773FF636AA2699A42C3D180
:10957000E369E1684BB1A3612369E3600023606A9A
:10958000E3616362FFF77AFFB6E794F829300BB91D
:1095900001236B600F4B4FF40172C3F808230023C3
:1095A000606AA361EEE70B484FF48E71FFF738FF56
:1095B0005369002BB0D051690291002391688DF856
:1095C0000030019153616846D2E900139847A3E740
:1095D00005B030BD002000402C2A00202DE9F843C2
:1095E000534D90F804802C2303FB0853064693F850
:1095F0002A300C469146002B40F096804D49006879
:10960000FFF7E0FE0746002840F0908022683068AF
:10961000511C0BD04FF0A04101239340C1F80835F5
:1096200002F5E0734FF0030C41F823C061684B1C56
:109630001FBF01F5E0734FF0A04C4FF0000E4CF847
:1096400023E0A369C0F8243594F814C0637DBCF10D
:10965000010F4CEA0303C0F86C35C0F81415C0F8CC
:109660000C251DD1A268531C1FBF02F5E0734FF0FB
:10967000A0414FF0000C41F823C0E368591C0BD007
:109680004FF0A04C01219940CCF8081503F5E0718A
:109690004FF0030E4CF821E0C0F80835C0F8102553
:1096A0002C2202FB08F2AB18C3F804902369AB50DC
:1096B000B9F1000F20D04FF48E71247FFFF7B0FE78
:1096C0004FF4A2713068FFF7ABFE32681A4BC2F854
:1096D0000433130B42F307326101002AC9B21EDBC7
:1096E0001648841884F800130121520903F01F035F
:1096F00001FA03F340F8223033680422C3F800254E
:109700002C2303FB08530022C3E9062283F82920F7
:109710005A61012283F82A203846BDE8F883084AB6
:1097200003F00F03D154E7E70827F5E71127F3E724
:109730002C2A00209D9402008000020000E100E03D
:1097400014ED00E0F8B503680579304C0022C3F849
:1097500000252C2202FB05425268A2B12C4AC3F814
:1097600008231A0B43F30733002B0CDB02F01F0115
:109770005B0901228A402033264941F82320BFF3A8
:109780004F8FBFF36F8F0068D0F80C65D0F81415B9
:10979000D0F80835D0F810254FF0FF37BE42C0F89A
:1097A000147518BF06F5E076C0F80C75C0F808759A
:1097B000C0F810751EBF4FF0A0474FF0020C47F8DD
:1097C00026C04E1C1FBF4FF0A04601F5E0710227D6
:1097D00046F82170511C1FBF4FF0A04102F5E07206
:1097E000022641F822605A1C1FBF03F5E0734FF0B8
:1097F000A042022142F82310FFF706FE2C2303FBB0
:109800000544002384F82A306360F8BD2C2A002028
:109810008402020000E100E00279044B2C2101FBEC
:1098200002335869003818BF012070472C2A0020E5
:109830002DE9F84F064690F8048089469246FFF7D6
:10984000EBFF044600283CD1204F2C2508FB057B6C
:109850004FF48E71CBF814A0CBF80890CBF8200011
:109860008BF828003068FFF7DBFD30680123836048
:109870005946FFF7DDFDDBF804305D461BBB306861
:10988000DBF814402B6A9C4211D83368D3F81C21B2
:10989000002AFBD00122DA6000202C2303FB08778A
:1098A00000237B61BDE8F88F95F828303BB9D0F8EC
:1098B0001C31002BF8D05946FFF7BAFDE2E70F2024
:1098C000EBE71120EEE72046ECE700BF2C2A002052
:1098D0000023435082B043580193019B02B070476C
:1098E0001FB501238DF80030044BCDE90110D3E9F9
:1098F00000126846904705B05DF804FB582A002026
:109900007FB5434AD2F82461002E60D010464FF450
:109910009271FFF7DDFF02238DF80030D2F880341A
:10992000C2F880340393D2F83C350293394BDA689D
:1099300001920022C3E906226846D3E9001290474B
:109940003348D0F8443173B14FF4A271FFF7C0FF30
:10995000304B9A693AB10022C3E90622D968D0F89F
:109960003C05FFF7BDFF2A48D0F82031ABB14FF4DA
:109970009071FFF7ADFF0123C360264B5A6962B1B6
:10998000D0F84C150291002299688DF800200191C1
:109990005A616846D3E9001290471D48D0F8583103
:1099A0009BB14FF4AC71FFF793FF1A4B5A6962B148
:1099B000D0F84C150291002299688DF80020019191
:1099C0005A616846D3E90012904704B070BDD2F8DE
:1099D0001031002BB4D04FF488711046FFF778FF98
:1099E0000C4BD2F83C0599698842A9D1DC69D96849
:1099F00064B1D2F8005225F02005C2F800521A696D
:109A00009C61DA60DE61FFF76BFF99E79C61FAE722
:109A100000200040582A00202DE9F8435A4E90F8C3
:109A20000480242303FB0863044693F820300D468A
:109A30009146002B40F0A38054490068FFF7C2FC18
:109A40000746002840F09D802A682068511C0BD0F2
:109A50004FF0A04101239340C1F8083502F5E073AF
:109A60004FF0030C41F823C069684B1C1FBF01F580
:109A7000E0734FF0A04C4FF0000E4CF823E0AB69C0
:109A8000C0F8243595F814C06B7DBCF1010F4CEA89
:109A90000303C0F86C35C0F80C25C0F814151DD1AF
:109AA000AA68531C1FBF02F5E0734FF0A0414FF0AE
:109AB000000C41F823C0EB68591C0BD04FF0A04CB0
:109AC00001219940CCF8081503F5E0714FF0030E21
:109AD0004CF821E0C0F80835C0F81025242202FB1C
:109AE00008F2B318C3F804902B69B350B9F1000F12
:109AF0002FD04FF488712A7FFFF7EAFE20684FF4D9
:109B00009071FFF7E5FE20684FF49271FFF7E0FED9
:109B100020684FF4A271FFF7DBFE4FF4AC712068B0
:109B2000FFF7D6FE23681A49C3F80413190B43F351
:109B300007335201002BD2B21CDB1648C51885F83A
:109B4000002301225B0901F01F0102FA01F140F834
:109B5000231023680822C3F80025242303FB08668A
:109B60000023C6E906337361012386F820303846A6
:109B7000BDE8F883084B01F00F015A54E9E70827C4
:109B8000F5E71127F3E700BF582A002001990200EA
:109B90001003420000E100E014ED00E0F8B5444C91
:109BA0000579242303FB054302465B680068ABB1DB
:109BB000404BC0F8083340F30733002B4FEA103115
:109BC0000CDB01F01F065B090121B14020333A4E46
:109BD00046F82310BFF34F8FBFF36F8FD0F80032DA
:109BE00023F02003C0F80032242303FB05439B69C4
:109BF0002BB14FF4A271FFF76BFE012343604FF4CA
:109C0000AC71FFF765FE0123C360242303FB05430A
:109C1000D0F858110029FBD0996919B1D0F8441136
:109C20000029F5D00023C0F800351368D3F80C756F
:109C3000D3F81465D3F80825D3F810154FF0FF3C7E
:109C40006745C3F80CC518BF07F5E077C3F814C51E
:109C5000C3F808C5C3F810C51EBF4FF0A0434FF0AE
:109C6000020C43F827C0771C1FBF4FF0A04306F536
:109C7000E076022743F826704E1C1FBF01F5E07105
:109C80004FF0A043022643F82160531C1FBF4FF042
:109C9000A04302F5E072022143F82210FFF7B4FB63
:109CA000242303FB0544002384F820306360F8BDBF
:109CB000582A00201003420000E100E00279044B22
:109CC000242101FB02335869003818BF0120704776
:109CD000582A002001F06043B3F1005F2DE9F047FE
:109CE0000646884692463BD190F80490FFF7E6FF7F
:109CF0000446002836D11D4F3068242505FB097520
:109D00004FF49071C5F814A0C5F80880FFF7E0FD86
:109D10004FF4AC713068FFF7DBFD33686A69A968FE
:109D2000C3F84415C3F8482501229A606A68DAB975
:109D3000D3F82021D3F858011AB90028F8D00F2001
:109D400007E00028FBD10122DA60D3F85821002A6D
:109D5000FBD0242303FB097700237B61BDE8F08758
:109D60001020FBE71120F9E72046F7E7582A0020EA
:109D70007FB503788DF804304368029383688DF8CB
:109D80000C30C36804930369064A8DF81430064BFF
:109D900001A853F8213052F82110984707B05DF818
:109DA00004FB00BF7C2A0020882A0020F0B505466D
:109DB000174615F804CB124A42F82C70114A42F8A3
:109DC0002C30114B0C460FCB85B06E4686E80F0049
:109DD0002368009323798DF8053063798DF8063078
:109DE000A3680293002FA389084AADF80C3008BF7E
:109DF0003A4663463146284600F036F805B0F0BDD5
:109E0000882A00207C2A002038E60200719D02008A
:109E1000124BD3F8182182B0EAB10022C3F81821FE
:109E2000D3F818310193019B0D4BD97FFF2907D03F
:109E3000987F01228A404FF0A04148B1C1F80C251B
:109E400000225A771A72D3E90021064802B010475F
:109E5000C1F80825F4E702B0704700BF00300040A9
:109E6000942A00209C2A00202DE9F74F90F80480C6
:109E7000644E01924FF0240909FB08F906EB090B27
:109E80009A469BF81C3007460C46002B40F0B580E4
:109E900005685D492846FFF795FA002840F0AF8035
:109EA000019B46F80930CBF804A094F800E094F840
:109EB0000CC04FF0A042012303FA0EF3BCF1010FD6
:109EC00094BFC2F80C35C2F808350EF5E0730121D5
:109ED00042F823106378FF2B1FBF9940C2F80C157E
:109EE00003F5E0714FF0030918BF42F82190A27802
:109EF00008BF4FF0FF33FF2A1FBF02F5E0714FF09C
:109F0000A04A4FF0040B4AF821B04FF0240101FBA6
:109F1000086618BF914686F82020E2783949F27722
:109F200008BF4FF0FF39FF2A17D094F804A04FF074
:109F3000010B0BFA02FB4FF0A046BAF1000F4ED016
:109F4000C6F80CB502F5E0724FF0030B46F822B0EC
:109F5000242202FB081282F81EA0C5F808E5C5F805
:109F60000C35A368C5F81095C5F82435637B003B14
:109F700018BF0123BCF1020F34D0BCF1030F34D061
:109F8000BCF1010F01D143F00203C5F85435A379A8
:109F9000C5F8C0350723C5F80035019BABB13B6858
:109FA000627943F307355201002DC3F30733D2B270
:109FB0001EDB164C661986F8002301226D0903F09A
:109FC0001F0302FA03F344F82530242303FB08118E
:109FD00000234B7701230B7703B0BDE8F08FC6F861
:109FE00008B5AFE743F00403CFE743F00603CCE73F
:109FF000074C03F00F03E254E7E70820ECE71120D9
:10A00000EAE700BF942A0020119E020000E100E070
:10A0100014ED00E070B50579224C24236B43E3581E
:10A0200093B103681A0B43F30733002B0CDB02F0E8
:10A030001F015B0901228A4020331B4941F823207C
:10A04000BFF34F8FBFF36F8F24236B43E218E358A6
:10A0500000687BB1154BC0F80833537F53B101231F
:10A060004361D0F80431002BFBD0242303FB0543CC
:10A0700000225A77242303FB0543002693F820305F
:10A08000FF2B1FBF03F5E0734FF0A042022142F8FF
:10A090002310C0F80065FFF7B7F9242303FB05443C
:10A0A000267770BD942A002000E100E052010800EC
:10A0B0002DE9F3410779474E24237B431446F218D8
:10A0C0000D46517F8646002940F08180F35823B128
:10A0D00014F0140F04BF0123537795E80F004FF0DD
:10A0E000240C0CFB076C0CF10C0888E80F009CF8A2
:10A0F0001F20FF2A08D09CF81E10012393404FF028
:10A10000A042C1B1C2F80835296821B101F060430D
:10A11000B3F1005F06D1AA6882B102F06043B3F1E7
:10A12000005F0BD0242303FB076600237377102006
:10A1300002B0BDE8F081C2F80C35E5E7DEF800308A
:10A140006868C3F84415C3F84805E968C3F83425BE
:10A150000022C3F83815C3F81821D3F8182101924A
:10A16000019A14F0010218BF0122C3F8502514F01F
:10A17000020218BF0122C3F8402522075CBF01225A
:10A180001A6124227A43B258B2B9D3F81821002AAE
:10A19000FBD0242303FB0766F27FFF2A07D0B07FA2
:10A1A000012393404FF0A04218B1C2F80C350020B3
:10A1B000BEE7C2F80835BBE714F004004FF04002D8
:10A1C00002D0C3F80823F2E7C3F80423B0E7112054
:10A1D000AEE700BF942A0020032811D8012A0AD133
:10A1E00001290FD100F10E02D2B20D4B00EB40005D
:10A1F0001A54002070470129F7D0022904D049B130
:10A20000072070470022F8E7054B00EB4000184498
:10A210004270EEE7024B00EB400018448270E8E722
:10A22000B82A002008B5012202210020FFF7D4FF40
:10A2300008B1072810D1072202210120FFF7CCFF27
:10A2400008B1072808D100210A220846FFF7C4FFF9
:10A2500010B1072808BF002008BD00000388102B9C
:10A2600010B502D0112B1ED010BD1A4C2168B1B907
:10A2700001220846FFF7B0FF08B1072824D10722C2
:10A2800002210120FFF7A8FF08B107281CD10422F2
:10A2900002210020FFF7A0FF08B1072814D123688E
:10A2A00001332360E0E70B4A1368013B1360002B86
:10A2B000DAD1FFF7B7FF0028D6D0074B1B68002B79
:10A2C000D2D0BDE810401847034B1B68002BE6D0E6
:10A2D0009847E4E7C82A0020C42A002033DF7047EB
:10A2E0004CDF70470123037070470000034B0122CD
:10A2F0001A70034A1378013313707047CE2A002076
:10A30000CF2A002010B5094C0948002322464FF4FB
:10A31000F6712370FCF7ECFD08B1FCF7C5FCFEF705
:10A32000EDFB2378002BFAD010BD00BFCC2A002013
:10A33000B0220020314B0222C3F8F0250522C3F8D9
:10A34000F425002282B01146130103F1804303F586
:10A35000E0430132082AC3F81415C3F81015F3D1ED
:10A36000264B274AC3F818254FF0A0410322C3F813
:10A3700014254FF480300122C3F81025C1F80805D8
:10A380000DF10601C3F80025C3F82C16C3F83026DA
:10A390001A60D3F80021002AFBD00022C3F8002164
:10A3A00001225A60154BD3F80421002AFBD0002269
:10A3B000C3F8042101229A60D3F81421002AFBD0AB
:10A3C0000022C3F81421BDF8063043F34E03ADF864
:10A3D0000630BDF806301B04084B48BFADF8062018
:10A3E000C3F800254FF0A0434FF48032C3F80C258A
:10A3F000BDF8060080B202B0704700BF0070004098
:10A4000000151001274A00230321C2F8F03582B05D
:10A41000C2F8F41519461A0102F1804202F5E04231
:10A420000133082BC2F81415C2F81015F3D11D4BD7
:10A430004FF08072C3F818250922C3F810250DF1DA
:10A4400006010122C3F80025C3F82C16C3F83026F4
:10A450001A60D3F80021002AFBD00022C3F80021A3
:10A4600001225A600F4BD3F80421002AFBD00022AE
:10A47000C3F8042101229A60D3F81421002AFBD0EA
:10A480000022C3F81421BDF806301B04054B48BF59
:10A49000ADF80620C3F80025BDF8060080B202B072
:10A4A000704700BF00700040104B0122C3F8002528
:10A4B0009A60D3F81421002AFBD00022C3F814219B
:10A4C0000122DA60094BD3F81021002AFBD00022C8
:10A4D000C3F8102101229A60D3F81421002AFBD07E
:10A4E0000022C3F81421C3F8002570470070004013
:10A4F000F0B54FF0A0454FF400338BB00446554AF9
:10A500005548C5F830370021FCF7E0FC08B1FCF7EE
:10A51000CBFB002640F203334FF48047C5F8206799
:10A52000C5F81867C5F80067C5F80467C5F8383777
:10A53000C5F80C75FFF7E6FEC5F80875FFF7E2FEF3
:10A54000464B0FCB04F1500585E80F00444B2365C3
:10A5500032463346294604F14000FFF727FC08B194
:10A56000FCF7A2FB63788DF80430A3788DF80530F2
:10A57000A37C8DF80630002601AB04F14405069358
:10A580003246032306A92846CDE907360996FFF788
:10A590008FFD08B1FCF788FB324F33483E703A46D6
:10A5A0005221FCF7A5FC08B1FCF77EFBFEF7A6FAEA
:10A5B0003B78002BFAD0AA2300228DF80A30A02382
:10A5C000CDF80B208DF80D30D0238DF80F300223FD
:10A5D0008DF8103063788DF80830E378217F8DF89E
:10A5E0000930E37E0B43617E0B43E17D0B43617DCC
:10A5F0000B43E17C0B438DF8113094F83D308DF81E
:10A60000123094F83E308DF8133094F820308DF8E5
:10A610001430637F8DF8153094F82F3094F834108F
:10A620008DF8163094F832300B438DF8173002ABAA
:10A63000069306A910232846CDE907320992FFF7B1
:10A6400037FD08B1FCF730FB2846FFF7E3FC0BB001
:10A65000F0BD00BFE5A20200B4E6020050E6020031
:10A6600000010608CD2A0020B02200202DE9F04F7D
:10A670002DED028BC3B0FCF7F7FB08B1FCF714FB20
:10A68000FEF726FA08B1FCF70FFB02F053FE08B103
:10A69000FCF70AFB00231DA901201D9302F016FF01
:10A6A00008B1FCF701FB1DA802F0C2FF08B1FCF7DE
:10A6B000FBFA1DA803F0FEF87849DFED798A9FEDDB
:10A6C000798A1DA803F013F94FF0A04340F203224A
:10A6D000C3F84027FFF7E8FEFFF794FED32828BF12
:10A6E000D32083B2972B38BF9723973B6E4A9BB2F8
:10A6F00012F80390FFF71EFE07EE900AB8EE677A95
:10A70000F0EE687AE7EE087A05A8FDEEE77A17EE34
:10A71000905A132DD8BF0025FFF7E2FD059E19239F
:10A720005E4300230093324629461DA84B4603F0A2
:10A7300007F95E4A5E480121FCF7C8FB08B1FCF747
:10A74000B3FA5C4800224FF48041FCF7D1FB08B11A
:10A75000FCF7AAFA584B059303F1806303F58323B2
:10A760001633069303F10433079303F1043308937C
:10A77000524A534B53495448DFF870B1CDE909238D
:10A78000524B534ACDE90B13524BCDE90D03524BBB
:10A79000CDE90F32514ACDE91123514B1393802358
:10A7A0008DF852304F4B0FCB4FF0000A15ACADF87F
:10A7B00050A084E80F0005A8FFF79AFE1DA803F03B
:10A7C000D8F84F46B046484A1378002B63D004A807
:10A7D00082F800A0FFF784FD049C19235C43301B22
:10A7E00003F039F940F2EE23984202DDFFF75CFEF8
:10A7F00026469BF800300A2B0FD98BF800A0FFF7F4
:10A8000001FED32828BFD32083B2972B38BF9723CC
:10A81000973B254A9BB212F80390FFF78BFD07EE9A
:10A82000900AF8EE677AB0EE687AA7EE887A28B2D6
:10A83000FDEEC77A17EE903A132BD8BF00231AB259
:10A84000801A039303F007F9039B0628C8BF1D462F
:10A85000A8EB040003F0FFF8B0F5167FD8BF44461C
:10A860004F4528BF4F46FFB23B46CDF800A02246D9
:10A8700029461DA803F089F84FF0A043D3F81035FE
:10A88000DB0404D4FFF72AFD08B1FCF70DFAFEF74C
:10A8900035F9A04697E74446F9E700BFB8E602005D
:10A8A000AA31A3C2FD87084070E60200EDA20200B3
:10A8B000B0E60200902200200B0A1F202D2E52012C
:10A8C0000002000400080010408005042000102051
:10A8D0000040801303020100080010200001020460
:10A8E0003040800160E60200CE2A0020CF2A0020FE
:10A8F000034B1A8882420CBF18460020704700BFE5
:10A90000EC2A0020024B9B6903B11847704700BF37
:10A91000D02A002037B50B46497A0F4A79B9D2E9D7
:10A9200001141D7A0246002D18BF21465868FCF715
:10A93000DFFA78B103B0BDE83040FFF7E3BF002194
:10A940001972536933B10122ADF806008DF8042065
:10A9500001A8984703B030BDD02A00204B88028858
:10A960009A4212D842889A420FD380888B8840F24C
:10A97000F311884294BF021A421A9A4205D8084439
:10A98000984234BF0020012070470020704700002B
:10A990000388122B70B5014659D004D8102B1ED055
:10A9A000112B44D070BD502BFCD12F4BC288DB89BA
:10A9B0009A42F7D1038A022BF4D186883046FFF7FA
:10A9C00097FF05460028EDD001F1120000F0BEF916
:10A9D00038BB6868FCF7BAFA0028E3D009E0C37B0B
:10A9E000012BDFD14FF6FF70FFF782FF054620B93C
:10A9F0000420BDE87040FFF785BF1C4A8E880680A2
:10AA0000002303721368C0F80A305368C0F80E3090
:10AA100010310A30FFF7A2FF134B6872DB89002B5D
:10AA2000C0D129463046BDE87040FFF773BF80882B
:10AA3000FFF75EFF04460028B4D04068FCF786FAB2
:10AA400008B1FFF75FFF4FF6FF732380AAE7868800
:10AA50003046FFF74DFF05460028A3D008310A30E5
:10AA6000FFF77CFF6872DCE7D02A0020002B002073
:10AA7000F7B5174601900E4691B1019C6CB10025C7
:10AA80002C46294601A8FDF7D6FA18B13946A8B2D6
:10AA9000B04701340135142DF3D1204603B0F0BD89
:10AAA0000C46FAE70AB1FDF7A5BAFDF7BABA73B5D5
:10AAB0000191019C06466CB100252C46294601A84F
:10AAC000FDF7B9FA18B106EB440301349D80013556
:10AAD000142DF3D13046346002B070BD2DE9F0473B
:10AAE00003888488103B8CB005460A2B21D8DFE808
:10AAF00003F0064020202020202020654700DFF8BA
:10AB0000E880D8F80830DB430093D8F80410684692
:10AB1000FDF7F6FA009901A8FFF7C9FF0DF1080942
:10AB20000027019B9F4207D3132C12D90420FCF766
:10AB3000BBF80CB0BDE8F08739F802AB002601364F
:10AB4000514608EB8600FDF76CFA1E2EF7D101374F
:10AB5000E7E71F482146FDF74DFA1E482146FDF75D
:10AB600049FAEB7B022BE4D11B482146FDF742FA60
:10AB7000DFE7174821460CB0BDE8F047FDF751BAB2
:10AB8000027A16483F2A4FEA1215214694BF002246
:10AB90000122FFF787FF022D94BF002201221048F7
:10ABA0002146FFF77FFF012D0E4894BF00220122AE
:10ABB00021460CB0BDE8F047FFF774BF037A002BC5
:10ABC000B7D1427A0548C2F3C0022146F1E700BF7F
:10ABD000102B00200C2B0020142B0020202B0020F9
:10ABE0001C2B0020182B0020082B002013280146C6
:10ABF00002D80248FDF71FBA002070470C2B002036
:10AC000007B50190FFF7F2FF019930B10448FDF755
:10AC100012FA002814BF0220012003B05DF804FBE3
:10AC2000142B002007B50190FFF7E0FF019930B128
:10AC30000448FDF700FA002814BF0220012003B0E9
:10AC40005DF804FB102B002007B50190FFF7CEFF45
:10AC5000019928B1044803B05DF804EBFDF7EBB9A6
:10AC600003B05DF804FB00BF182B002007B501906E
:10AC7000FFF7BCFF019928B1044803B05DF804EB6D
:10AC8000FDF7D9B903B05DF804FB00BF1C2B002011
:10AC900007B50190FFF7AAFF019928B1044803B056
:10ACA0005DF804EBFDF7C7B903B05DF804FB00BF26
:10ACB000202B002070B50A4E054630460C46FDF7A5
:10ACC000BAF958B12846FFF791FF38B10734294641
:10ACD00006EB8400BDE87040FDF7ADB9002070BD03
:10ACE000082B0020F8B50B4F054638460C46164693
:10ACF000FDF7A1F960B12846FFF778FF40B10734AE
:10AD00003246294607EB8400BDE8F840FFF7CABE8B
:10AD1000F8BD00BF082B002073B50B4D019204460F
:10AD20000E4601462846FDF786F950B1063405EB7C
:10AD30008404019A6068314602B0BDE87040FFF7B4
:10AD400097BE02B070BD00BF082B0020008800F045
:10AD500001007047A0DF7047A1DF7047ADDF70478B
:10AD6000B3DF7047B4DF704710B50446408800F089
:10AD700059FDA0802046BDE8104001F04FBB30B522
:10AD800087B005460C461422002101A802F0D7FE28
:10AD9000082301A88DF80430ADF806500394FFF79E
:10ADA000E3FF07B030BD000070B586B00546142241
:10ADB000002101A802F0C3FE4FF6FF739D42ADF8DB
:10ADC00006503FD0284600F01DFC1128044633D021
:10ADD00016D8D8B10B2820D02046FDF711FF1A4E07
:10ADE0001A4902461A48361AF608360446F0010097
:10ADF0002B46FBF70EFE21462846FFF7C0FF03E077
:10AE000043F202039842E7D1002216E00F238DF8A7
:10AE1000043001A8FFF7A8FFF6E710238DF80430EF
:10AE200009480B4B0B49C01AC00800042A4640F0E1
:10AE30000200FBF7E5FDECE70122074B28461978F5
:10AE4000FFF750FF06B070BDF0DC02003CE70200E7
:10AE500070DC0200BCE602008B2B0020FFF7A4BFD1
:10AE6000024B034918780022FFF756BF8D2B0020B4
:10AE700075AE02002DE9F047DFF8348188B098F80C
:10AE800000100446FFF716FF0646002840F08480B5
:10AE9000204600F01BFC0828054632D016D808B31F
:10AEA00006285BD02846FDF7ABFE3D4F3D490246E4
:10AEB0003D483F1AFF083F0447F001002346FBF7D7
:10AEC000A8FD29462046FFF75AFF09E043F2020396
:10AED000984205D043F20143984259D01128E1D15C
:10AEE000012546E03146142203A802F028FE112372
:10AEF00003A88DF80C30ADF80E400126FFF734FFA3
:10AF0000EEE70DF10600FFF72BFF354601274FF066
:10AF1000020A0DF10809BDF80630BB421ED9002215
:10AF200049463846CDE903A9FFF71CFFB0B9BDF883
:10AF300008303DB942F605255B1B5D425D41013796
:10AF4000BFB2E8E742F602129342F8D101AB03AA7E
:10AF5000394620460493FFF701FF30B1204600F048
:10AF600061FC00F0DFFB002503E0BDF80430002B9E
:10AF7000F4D00E4B2A4619782046FFF7B3FE98F816
:10AF800000103246204608B0BDE8F047FFF7AABEE1
:10AF90002046FFF709FFA3E708B0BDE8F08700BF30
:10AFA000F0DC02008DE7020070DC02008D2B002037
:10AFB0008E2B002013B5044600F034FC00236A46B3
:10AFC000092100F015FE052805D1044B012219784E
:10AFD0002046FFF787FE02B010BD00BF892B00207E
:10AFE00008B5084B084918780022FFF795FE02467D
:10AFF00030B9064B06491878BDE80840FFF78CBE0B
:10B0000008BD00BF8C2B00205DB00200892B002002
:10B0100015B0020037B5044604220021684602F04C
:10B020008EFD42F6A623ADF800300A4B1868019059
:10B03000012501AA694620468DF80250FFF78AFED5
:10B0400028B9054B2A4619782046FFF74BFE03B076
:10B0500030BD00BF5CE90200882B002070B50121E3
:10B0600086B006462B48FDF71CF80446BFF35F8FF9
:10B0700000284AD1304600F037FA1128054639D069
:10B0800018D8002843D00B2832D02846FDF7B8FD49
:10B09000214C224902462248241AE408240444F0A0
:10B0A00001003346FBF7B5FC29463046FFF767FE43
:10B0B00000241DE0862803D043F202039842E3E710
:10B0C0001422214601A802F03AFD07238DF804302E
:10B0D0001148134B1349ADF80660C01AC0080004AC
:10B0E00040F002003246FBF78BFC01A8FFF73CFE64
:10B0F000224600E001220C4B30461978FFF7F2FDA2
:10B100001CB9BFF35F8F034B1C6006B070BD0124F8
:10B110000246F0E7842B0020F0DC020002E8020087
:10B1200070DC0200CDE702008C2B002038B50378DC
:10B130000446A3B94088FFF737FE6588284600F02B
:10B14000B3FA28B1064B012219782846FFF7CAFD49
:10B150006088FFF72FFFBDE83840FFF741BF38BDDB
:10B160008D2B002037B50378092B044630D1427A65
:10B1700072BB057A072D1BD0082D2ED0012D27D1AB
:10B1800080886A46294600F071FF08BB019B1B7846
:10B19000F3B1A08800F074FB4FF6FF73984217D00C
:10B1A000124B2A461978FFF79DFDFFF759FE0FE075
:10B1B000808800F065FB4FF6FF739842044607D085
:10B1C0000B4B01221978FFF78DFD2046FFF7F2FEA9
:10B1D00003B0BDE83040FFF703BF064B19680129F3
:10B1E000F6D1BFF35F8F1A60F2E700BF8D2B00200E
:10B1F0008C2B0020842B002037B5134B0022CDE987
:10B200000032124B0D4619780446FFF76BFD1049CA
:10B21000104B2046002D08BF0B46019300F002FBA7
:10B220000022694600F050FD60B1FDF7E9FC0A4BD1
:10B230000A4902460A481B1ADB081B0443F00200B5
:10B24000FBF7DEFB03B030BD01000900892B0020B5
:10B2500060E9020064E90200F0DC02003FE802005D
:10B2600070DC020070B503888488502B86B00546D8
:10B2700039D00FD8352B49D0362B00F08D80584B64
:10B28000584918780022FFF747FD06B0BDE8704026
:10B29000FFF7E6BD522B22D0542BF0D1142200210F
:10B2A00001A802F04CFC122320468DF80430ADF8C2
:10B2B000064000F0B7FAADF8080000F033FA4A4B48
:10B2C000204619780022FFF70DFD484B20461978DB
:10B2D0000022FFF707FD01A8FFF746FDCFE7204654
:10B2E000FFF762FDCBE7037B012BC8D1827A012AED
:10B2F000C5D1018942F602139942C0D13C4B204688
:10B300001978FFF7EFFCFFF76BFEB8E7394E2046E0
:10B310003178FFF7CFFC0028B1D0002231782046E9
:10B32000FFF7E0FCEA88B2F5857F0AD072B13248B7
:10B33000324BC01AC0080004314940F00200FBF74C
:10B340005FFB00212046FFF757FF98E76A89012A33
:10B3500009D02948294B2B49C01AC008000440F0E5
:10B360000200FBF74DFBAE89012E07D02248234B8C
:10B37000C01AC008000432462349DEE7E9890022EA
:10B380002046FFF7E9FC0028DBD1204B3246197834
:10B390002046FFF7A7FC72E71C4E20463178FFF7E6
:10B3A00089FC00283FF46BAF317800222046FFF77C
:10B3B00099FCEE8836B11048104BC01AC008000442
:10B3C0003246B9E7EA89012A05D00B480B4BC01A6F
:10B3D000C0080004D0E7297C003918BF0121B1E77B
:10B3E0008B2B00205DAE02008E2B00208D2B0020C9
:10B3F0008C2B0020882B0020F0DC020070DC020087
:10B400009CE80200D6E8020010E902008A2B002026
:10B41000AFDF7047B1DF7047B2DF7047B3DF70470F
:10B4200010B50446808800F02BFA60802046BDE805
:10B43000104000F0F5BF0000F0B5204B204E93E81F
:10B44000030089B001AD85E803004FF6FF7730882F
:10B45000B84217D00022294600F036FC044638B323
:10B460001422002103A802F06AFB3388ADF81030E3
:10B47000112C07D0862C07D107238DF80C3003A898
:10B48000FFF7CEFF09B0F0BD2046FDF7B9FB0D4D2B
:10B4900033880D4902460D482D1AED082D0445F05C
:10B4A0000100FBF7B6FA08238DF80C300594E6E7A7
:10B4B000308800F076FC3080C9E700BF4CEB02001A
:10B4C000902B0020F8DC020068E9020070DC02002A
:10B4D000044B1A884FF6FF739A4201D0FFF7ACBFB6
:10B4E000704700BF902B00202DE9F04F87B08046B9
:10B4F00000F098F94FF6FF739842064676D03D4D1E
:10B500003D4BED1AED082D0445F0010501273A46A3
:10B5100002AB0821304600F0ADFD0137BFB2044652
:10B5200000285ED1DDF80CB0DA464FF003094AF886
:10B53000069B4B460BF1040251464046FFF76CFF59
:10B540000346A0BB04AA0821304600F08FFDA8B135
:10B55000052809D132460821304600F04FFE034647
:10B56000184607B0BDE8F08FFDF74AFB23490246B5
:10B5700043462846FBF74DFA4B46F1E70599BBF8E1
:10B5800004308A889A42E5D10631504602F077FAB3
:10B590000028DFD10821304600F0DEFD28B1FDF79C
:10B5A0002FFB174903463246E3E70B23D8E70C2865
:10B5B00015D0052800D1234608213046019300F01C
:10B5C000CBFD019B40B1FDF71BFB0D490346324605
:10B5D0002846FBF71EFA0323002C98D1C0E701246C
:10B5E000EAE7072814BF03460C23B9E743F2020336
:10B5F000B6E700BFF8DC020070DC0200BDE9020023
:10B60000F5E902002DE9F341054600F00BF94FF68C
:10B61000FF73984222D10024032627464FF00108E9
:10B620003346224639462846FFF7F4FE04282BD03D
:10B63000082830D00B2828D116F0020319D1E7B919
:10B64000FCB91648164B17491B1ADB081B042A467F
:10B6500043F00100FBF7D4F90B2019E06A460821FA
:10B6600000F004FD0028D6D1019B9C881E689F1D18
:10B67000D4E701264FF00008D2E703261C461F46F8
:10B68000F8E703263C46F5E71120B8F1000FE3D0B8
:10B6900002B0BDE8F0810020F7E700BF70DC0200D7
:10B6A000F8DC020074EA02001FB50DF107030393F2
:10B6B00000F0B8F802AA012100F0D8FC20B9039BE1
:10B6C000187805B05DF804FB0020FAE770B5054670
:10B6D0001048FFF7A3FE70B90E4C43F20306218811
:10B6E0004FF6FF722846FFF793FEB04211D1238830
:10B6F00001332380F3E7FDF783FA074B074902463E
:10B7000007481B1ADB081B0443F00100FBF778F91C
:10B71000032070BD922B0020F8DC0200ECEA02004E
:10B7200070DC020013B5074A044692E803006B463A
:10B7300083E8030000221946204600F0C5FA02B053
:10B7400010BD00BF54EB020046DF7047421E00F1FF
:10B750000F0312F8010F10B99A42FAD17047012075
:10B76000704708B570B171B103780A78534013F08F
:10B77000FE0F08D106220131013002F080F9B0FA43
:10B7800080F0400908BD0020FCE72DE9F04700F1FA
:10B7900001084F1C06460D4600F1110901F1110A7E
:10B7A00010223946404602F06AF90446D0B94046B4
:10B7B000FFF7CCFF18B13846FFF7C8FF04465146E3
:10B7C0004846FFF7CEFF737C03F0FC03042B05D043
:10B7D0006B7C03F0FC03042B18BF044604F001004B
:10B7E000BDE8F0870024EAE730B585B004460D4691
:10B7F00000F034FA02AA0DF10601072000F036FA33
:10B8000010B94FF6FF700BE0BDF80630AB42F1D037
:10B8100003992046FFF7B9FF0028EBD0BDF80600DA
:10B8200005B030BD132810B5044602D94FF6FF709D
:10B8300010BDFFF7DBF90028F8D00A20014B444384
:10B84000185BF5E7942B0020132838B505460C4605
:10B8500002D943F2020038BDFFF7C8F90028F8D03A
:10B86000064B0A2000FB0530D0F802302360C38865
:10B87000A380037AA3710020EDE700BF942B002082
:10B880004FF6FF7398422DE9F04105460CD00C4F5E
:10B8900000244FF00A0808FB04F3A6B2DB5BAB42BE
:10B8A00005D00134142CF6D14FF6FF7604E0304673
:10B8B000FFF79CF90028F4D03046BDE8F08100BFC6
:10B8C000942B0020038843B9821C0A3012F8013BF4
:10B8D0001BB98242FAD1184670470120704710B553
:10B8E0000446FFF7EFFF58B122880B889A4208D12F
:10B8F00008220231A01C02F0C2F8B0FA80F0400920
:10B9000010BD0020FCE71FB5044600F0A7F902AA0D
:10B910000DF10601072000F0A9F910B94FF6FF70EC
:10B9200007E0039920464631FFF7D9FF18B1BDF86B
:10B93000060004B010BD039920462A31FFF7CFFF5F
:10B940000028E4D0F3E7000013289FBF0A235843E0
:10B95000014B1952704700BF942B002038B50546A3
:10B96000FFF78EFF0446284600F000FC38B9132C80
:10B9700005D80A235C43024B4FF6FF721A5338BDB9
:10B98000942B002070B58CB014466A460D4600F129
:10B990001003164613F8011D02F8011B9842F9D155
:10B9A0000D22002104A802F0CAF82B788DF81F3070
:10B9B0006B788DF81E303046AB788DF81D30FFF770
:10B9C000C3FE9DF82F3023709DF82E3063709DF8D4
:10B9D0002D30A3700CB070BD30B5037803F0FE03BA
:10B9E000042B85B004460D4618D1411C032201A842
:10B9F00002F07CF80322211D03A802F077F802AAC6
:10BA000003A92846FFF7BEFF032202A901A802F0FE
:10BA100036F8B0FA80F0400905B030BD0020FBE7F1
:10BA200030B50388102B93B04ED1041D0FCC07AD59
:10BA30000FC50FCC0FC594E807009DF8203003F028
:10BA4000FE03062B85E8070009D000F007F99DF8F2
:10BA50002030032B4FEA530204D9022A3DD04FF67F
:10BA6000FF7310E002AA0DF10601072000F0FEF8B6
:10BA70000028F4D0039908A81131FFF772FE0028BE
:10BA8000F0D0BDF80630BDF81C4018480A226243C9
:10BA9000811883529DF8262008980A724FF6FF728B
:10BAA000C1F802009342BDF82400C8800CD0ADF864
:10BAB0000C3002A80023ADF80A408DF8083000F0E1
:10BAC000B1FC02A8FFF732FB13B030BD039908A800
:10BAD0000131FFF781FF0028D3D102AA0DF1060141
